:020000040000FA
:10000000803102288731E42F0800FD007808FC00C9
:100010007C08F4007D089B31152380317B08031D8B
:100020001228132838282028790884007A088500A7
:1000300000089931222180310130F9070030FA3D62
:10004000790884007A0885001200031D28282928D1
:1000500014283D28790884007A0885000008993121
:10006000222180310130F9070030FA3D0130FB02D6
:100070007B08031D3C283D282A2808004101BC00BC
:10008000BA01BB01400166084101D000400165088A
:100090004101CF00400164084101CE0040016308E6
:1000A0004101CD0050084001B80041014F08400116
:1000B000B70041014E084001B60041014D08400122
:1000C000B5000030BC000030BB000030BA0000308A
:1000D000B9009E313726803103186F28702889288F
:1000E00001304101BA000030BB005008F3004F0856
:1000F000F2004E08F1004D08F000993134218031B2
:1001000073084101D0007208CF007108CE0070085A
:10011000CD004101D301D40142015D084101C0007D
:1001200042015C084101BF003A083B04031D9928C5
:100130009A289F284201601D9E289F28BE284101C1
:100140003A083B04031DA528A628AB282B30A000A5
:100150000030A100AF282D30A0000030A100200801
:100160004001E80068084301A00001304101D307C5
:100170000030D43DFF30BF07FF30C03D4101500883
:10018000F3004F08F2004E08F1004D08F0009D31D9
:10019000B825803170037104031DCF28D02822298F
:1001A00040016708BF3EE800FF3003180030E90057
:1001B000003069021A3003196802031CE028E228A3
:1001C0000130E3280030EA00EB016A084101A20097
:1001D00040016B084101A300220823040319F12800
:1001E000F228FC282E30F000A030F1005308A03E89
:1001F0009A313322803105293630F000A030F100E9
:100200005308A03E9A3133228031FD304101BF07AF
:10021000FF30C03DA0304001E8006808A400410163
:1002200040084001A60041013F084001A5004101EE
:100230003C089C31A524803140012508E4002408B5
:10024000E300E32F41015008F3004F08F2004E088D
:10025000F1004D08F0009D31B8258031700871041F
:10026000031D33293429862940016708BF3EE80071
:10027000FF3003180030E900003069021A3003191A
:100280006802031C44294629013047290030EA004E
:10029000EB016A084101A40040016B084101A5007F
:1002A0002408250403195529562960293230F00005
:1002B000A030F1005308A03E9A31332280316929E1
:1002C0003A30F000A030F1005308A03E9A313322BA
:1002D0008031FD304101BF07FF30C03DA0304001FB
:1002E000E8006808A400410140084001A60041015F
:1002F0003F084001A50041013C089C31A524803104
:1003000040012508E4002408E300E32F3F304101C9
:10031000D8008030D7000030D6000030D500D101A1
:10032000D2015008F3004F08F2004E08F1004D08CA
:10033000F0000030F7000030F6000030F50000302B
:10034000F4009B31AE2380310318A729A8296C2A19
:10035000D92941304001A3002030A2000030A10083
:100360000030A000410158084001A7004101570892
:100370004001A600410156084001A5004101550871
:100380004001A4008A31B422803140012308410198
:10039000D800400122084101D70040012108410155
:1003A000D600400120084101D5000130D1070030BE
:1003B000D23D410150084001B80041014F084001C1
:1003C000B70041014E084001B60041014D0840010F
:1003D000B5004130A3002030A2000030A100003061
:1003E000A000410158084001A70041015708400101
:1003F000A600410156084001A500410155084001F1
:10040000A4008A31B422803140012308BC002208B4
:10041000BB002108BA002008B9009E313726803180
:100420000318132A142AA929452A41304001B8008B
:100430002030B7000030B6000030B5004101580848
:100440004001BC00410157084001BB004101560872
:100450004001BA00410155084001B90096314C26CF
:100460008031400138084101D8004001370841017E
:10047000D700400136084101D6004001350841014E
:10048000D500FF30D107FF30D23D41015008400177
:10049000B80041014F084001B70041014E0840013A
:1004A000B60041014D084001B50041015808400126
:1004B000BC00410157084001BB0041015608400102
:1004C000BA00410155084001B9009E3137268031FC
:1004D000031C6B2A6C2A152A40016708E800E90111
:1004E0006808F6006908F7009A31772280317608AB
:1004F0004001EA006A084101C20042084001E800E8
:1005000068084101C10067304206031D882A892A14
:10051000B22A42015E085F04031D8F2A902A942AA2
:100520000130DE000030DF005F08803A4001E80063
:1005300080306802031D9F2A013042015E020318C9
:10054000A22AA32AA92A06304101BD000030BE001C
:10055000B82A42015F084101BE0042015E08410124
:10056000BD00B82A4201DF1BB62AB72AA32AA92A4E
:1005700067304206031DBD2ABE2AF62A5208803A79
:100580004001E8007F306802031DC92AFC304101A8
:100590005102031CCC2ACD2AF02A41013D08FF3E1E
:1005A0004001E800FF3041013E3D4001E90069089B
:1005B000803AEA0041015208803A40016A02031D74
:1005C000E52A4101510840016802031CE82AE92A92
:1005D000F02A66304001E80068084101C100F62AAF
:1005E00065304001E80068084101C1003E08B300E1
:1005F0003D08B20067304206031DFF2A002B0A2B7C
:1006000066304106031D052B062B0E2BD21F092B2E
:100610000A2B0E2B0130B2070030B33D6630410685
:10062000031D132B142B2C2BD21F172B182B222B13
:100630003F30D8008030D7000030D6000030D500E1
:10064000D101D201673042060319272B282B2C2B0E
:100650005108B2075208B33DCB01CC015008C60087
:100660004F08C5004E08C4004D08C3005808B70025
:100670005708B6005608B5005508B400162C4101BD
:1006800058084001B800410157084001B700410136
:1006900056084001B600410155084001B50041012E
:1006A00046084001BC00410145084001BB00410132
:1006B00044084001BA00410143084001B9009631A5
:1006C0004C26803140013808D2003708D100360866
:1006D000D0003508CF009131AD2180314001520862
:1006E0004101CA00400151084101C90040015008C0
:1006F0004101C80040014F084101C7004A084001BC
:10070000B800410149084001B700410148084001D3
:10071000B600410147084001B50088310020803112
:10072000400136084101B900400135084101B800D7
:100730004A084001A700410149084001A6004101C3
:1007400048084001A500410147084001A4004101BB
:1007500058084001A300410157084001A20041018F
:1007600056084001A100410155084001A0008A310E
:10077000B422803140012308B8002208B7002108C4
:10078000B6002008B500410146084001BC00410107
:1007900045084001BB00410144084001BA00410145
:1007A00043084001B9009931F221803140013808F5
:1007B0004101C600400137084101C500400136082B
:1007C0004101C400400135084101C30041304001EE
:1007D000B8002030B7000030B6000030B50041014D
:1007E00058084001BC00410157084001BB004101CD
:1007F00056084001BA00410155084001B900963140
:100800004C268031400138084101D80040013708AA
:100810004101D700400136084101D60040013508AA
:100820004101D5000130CB070030CC3D4C08803A67
:100830004001E80041013308803A40016802031D8D
:10084000242C410132084B02031C272C282C3F2B5F
:1008500040304001A300A030A2000030A1000030D1
:10086000A000410158084001A7004101570840017C
:10087000A600410156084001A5004101550840016C
:10088000A4008A31B4228031400123084101CA000A
:10089000400122084101C900400121084101C8006E
:1008A000400120084101C70046084001B80041014D
:1008B00045084001B700410144084001B60041012C
:1008C00043084001B50041014A084001BC00410114
:1008D00049084001BB00410148084001BA004101FC
:1008E00047084001B9009E31372680310318792C22
:1008F0007A2C842C00304101CA000030C90000303D
:10090000C8000030C700A92C41014608F300450883
:10091000F2004408F1004308F0004A08F7004908D3
:10092000F6004808F5004708F4009B31AE238031FB
:10093000031C9B2C9C2CA92C41013818A02CA12C09
:10094000A92C0030CA000030C9000030C8000030B7
:10095000C70041014A08F3004908F2004808F100C5
:100960004708F0005008F7004F08F6004E08F50061
:100970004D08F40088317520803173084101C600AC
:100980007208C5007108C4007008C3004608400121
:10099000B800410145084001B70041014408400149
:1009A000B600410143084001B5004130A3002030AA
:1009B000A2000030A1000030A00041013708400132
:1009C000A700410136084001A60041013508400159
:1009D000A500410134084001A4008A31B4228031CD
:1009E00040012308BC002208BB002108BA002008EF
:1009F000B9009E3137268031031CFF2C002D3B2D82
:100A000001304101D1070030D23D41304001A30007
:100A10002030A2000030A1000030A00041013708C2
:100A20004001A700410136084001A60041013508F8
:100A30004001A500410134084001A4008A31B422DC
:100A40008031400123084101B700400122084101E3
:100A5000B600400121084101B500400120084101D4
:100A6000B40066304106031D362D372D3B2D013075
:100A7000B2070030B33D41013708D8003608D7002F
:100A80003508D6003408D500653041060319492DD4
:100A90004A2D4F2D5208B1005108B000512DB00120
:100AA000B101AE01AF01AC01AD01CB01CC01A82E6B
:100AB000410158084001B800410157084001B70002
:100AC000410156084001B600410155084001B500FA
:100AD000410146084001BC00410145084001BB00FE
:100AE000410144084001BA00410143084001B900F6
:100AF00096314C26803140013808D2003708D100A9
:100B00003608D0003508CF009131AD218031400149
:100B100052084101CA00400151084101C900400189
:100B200050084101C80040014F084101C7004A0870
:100B30004001B800410149084001B700410148089F
:100B40004001B600410147084001B500883100204E
:100B50008031400136084101B900400135084101AA
:100B6000B8004201601AB52DB62DCC2D41013808D0
:100B70003904031DBC2DBD2DCC2D67304206031D4D
:100B8000C22DC32DCC2DB11FC62DC72DCC2D0130AC
:100B9000AC070030AD3D262E41012E082F04031D69
:100BA000D22DD32D0A2EB11FD62DD72D0A2E2E30A1
:100BB0004001E80041015308A03E86000130870053
:100BC00040016808810001304101D3070030D43D65
:100BD000FF30BF07FF30C03D0130AE000030AF0036
:100BE0000A2E30304001E80041015308A03E860043
:100BF0000130870040016808810001304101D307BE
:100C00000030D43DFF30BF07FF30C03DFF30AC07A0
:100C1000FF30AD3D2C082D04031D0F2E102EF12D9D
:100C20003808303E4001E80041015308A03E8600EC
:100C30000130870040016808810001304101D3077D
:100C40000030D43DFF30BF07FF30C03D4A084001AF
:100C5000A700410149084001A600410148084001A0
:100C6000A500410147084001A40041015808400186
:100C7000A300410157084001A2004101560840016C
:100C8000A100410155084001A0008A31B422803101
:100C900040012308B8002208B7002108B600200848
:100CA000B500410146084001BC0041014508400132
:100CB000BB00410144084001BA0041014308400122
:100CC000B9009931F2218031400138084101C60054
:100CD000400137084101C500400136084101C40008
:100CE000400135084101C30041304001B8002030C7
:100CF000B7000030B6000030B5004101580840018F
:100D0000BC00410157084001BB00410156084001A9
:100D1000BA00410155084001B90096314C26803196
:100D2000400138084101D800400137084101D7008F
:100D3000400136084101D600400135084101D50087
:100D4000FF30B007FF30B13D0130CB070030CC3D64
:100D50004C08803A4001E80041013308803A4001E4
:100D60006802031DB62E410132084B020318B92E4A
:100D7000BA2ECA2E41015408803A4001E800803062
:100D80006802031DC62E4B3041015302031CC92EBD
:100D9000CA2E582D41012E082F04031DD02ED12E0E
:100DA000E72E4201601ED52ED62EE72E2E304001B2
:100DB000E80041015308A03E860001308700400151
:100DC0006808810001304101D3070030D43D410162
:100DD0005308A03E8600013087008101653041063E
:100DE000031DF32EF42ECC2F4F30CB000030CC005F
:100DF0004B08A03E8600013087008101BA01BB018B
:100E0000D21F032F042F0D2F0130BA000030BB007A
:100E1000D109D209D10A0319D20A0230BD0000302B
:100E2000BE00482FFF304101CB07FF30CC3D0A30D8
:100E3000F0000030F1005208F3005108F2009B313D
:100E4000FC2380317008303E4001E80041014B082E
:100E5000A03E8600013087004001680881000A300A
:100E6000F0000030F10041015208F3005108F20097
:100E70009D315925803171084101D2007008D1009F
:100E8000FF30BD07FF30BE3DFF30BF07FF30C03D24
:100E900051085204031D4D2F4E2F122F3E08803A49
:100EA0004001E80080306802031D592F01304101E4
:100EB0003D0203185C2F5D2F122FFF304101CB073D
:100EC000FF30CC3D3A083B04031D672F682F6D2F80
:100ED0002B30A6000030A700712F2D30A600003067
:100EE000A70026084001E80041014B08A03E86000B
:100EF00001308700400168088100FF304101BF07D1
:100F0000FF30C03DFF30CB07FF30CC3D40016708CC
:100F1000BF3EE800FF3003180030E90000306902EE
:100F20001A3003196802031C962F982F0130992F4D
:100F30000030EA00EB016A084101AA0040016B0899
:100F40004101AB002A082B04031DA72FA82FAD2FAA
:100F50006530A8000030A900B12F4530A80000304E
:100F6000A90028084001E80041014B08A03E860086
:100F700001308700400168088100FF304101BF0750
:100F8000FF30C03D4B08A03EF0000130F100530897
:100F9000A03E9A3133228031A0304001E800680839
:100FA000A400410140084001A60041013F08400162
:100FB000A50041013C089C31A52480314001250851
:100FC000E4002408E300080042019831EB20873157
:100FD000E4009831EC208731E50052308400013084
:100FE000850012309831FD208731A0308400013017
:100FF000850050309831FD20873140019331992B85
:1010000003104001370D380DB9003908BF003F0803
:10101000031D0B280C2815280030B8000030B7003D
:101020000030B6000030B50074283508B900360825
:10103000BA003708BB003808BC001F30BC36BB0CF8
:10104000BA0CB90C890B1E283908BD003D08BE003A
:10105000B717FF30B505FF30B605FF30B7050030D4
:10106000B8059630BF02BF1F362837284F283F08E3
:10107000803A973E03183D283E283F280C2801302F
:10108000B836B70CB60CB50C890B40280130B90046
:101090003908BF07031D4D284E283F2864282030FB
:1010A0003F02031C542855285F280C280130B53511
:1010B000B60DB70DB80D890B57280130BF023F0898
:1010C000031D6328642856283E08031968286928E8
:1010D0007428B509B609B709B809B50A0319B60ADB
:1010E0000319B70A0319B80A0800730880394001C8
:1010F000A0002008F8007335A0002008FA00F21FB5
:101100008228832884287A147A0803198828892851
:1011100099287A0A031D8D288E2896280030F3001E
:101120000030F2000030F1000030F000F217F3015F
:10113000A1280030F3000030F2000030F100003050
:10114000F00077088039A0002008F90079087806B7
:101150000319AB28AC28AD2878177735A0002008F4
:10116000F900F61FB428B528B628791479080319B0
:10117000BA28BB28CB28790A031DBF28C028C82855
:101180000030F7000030F6000030F5000030F400C9
:10119000F617F701D3280030F7000030F6000030D2
:1011A000F5000030F4007A0879020318D828D9280D
:1011B0001D29781FDC28DD28E1288030A0002008C8
:1011C000F8067A08A0002008FB007908A000200893
:1011D000FA007B08A0002008F9007008A000200891
:1011E000FB007408A0002008F0007B08A000200885
:1011F000F4007108A0002008FB007508A00020087A
:10120000F1007B08A0002008F5007208A00020086B
:10121000FB007608A0002008F2007B08A000200850
:10122000F6007308A0002008FB007708A000200843
:10123000F3007B08A0002008F700FB017908A0005C
:10124000A1012108A3007A082002A200031CA30325
:101250002308803AA40080302402031D31291A306B
:101260002202031C342935296F2973087204710482
:101270007004031D3C293E2901303F290030400104
:10128000A0002008FB000030F3000030F200003026
:10129000F1000030F0007908A0002008FA0075295C
:1012A0007B1C532954295B297B3601384001A0005F
:1012B0002008FB005D290310FB0C701C60296129CC
:1012C0006229FB1701304001A000F337F20CF10C4A
:1012D000F00CA00B65290130A0002008FA0779085E
:1012E0007A02031C742975295029781B78297929D9
:1012F000B3297A08031D7D297E2987290030F30050
:101300000030F2000030F1000030F000B32A740821
:10131000F0077508F13D7608F23D7708F33D731C40
:1013200092299329402A7B1C962997299E297B364E
:1013300001384001A0002008FB00A0290310FB0C8D
:10134000701CA329A429A529FB1701304001A00086
:10135000F337F20CF10CF00CA00BA8290130A0001F
:101360002008FA07402A7308803A4001A000770855
:10137000803A2002031DC62976087202031DC62981
:1013800075087102031DC629740870020318C92963
:10139000CA29022AFF30A000FF30A100FF30A200BE
:1013A000FF30A30070087402A4007108753BA5000B
:1013B0007208763BA6007308773BA7002408A007B5
:1013C0002508A13D2608A23D2708A33D2308F300D8
:1013D0002208F2002108F1002008F0008030A0006F
:1013E0002008F806FB09FB0A7B08031DF829F929E8
:1013F0000A2A0130F0070030F13D0030F23D0030A4
:10140000F33D0A2A7408F0027508F13B7608F23BB6
:101410007708F33B7308720471047004031D112AEA
:10142000122A3C2A7B08031D162A172A3C2A003060
:10143000F3000030F2000030F1000030F000B32A79
:101440000130F035F10DF20DF30D890B212AFB1F50
:101450002A2A2B2A2C2A70147B1C2F2A302A332A62
:101460000314FB0D352A0310FB0D7A080319392AE2
:101470003A2A3C2A0130FA02F21F3F2A402A202A47
:10148000F901FB1F442A452A532A7B087F39031997
:101490004A2A4B2A4E2AF901F90A532A701C512A6A
:1014A000522A532A4B2A79080319572A582A862A7E
:1014B0000130F0070030F13D0030F23D0030F33DE7
:1014C000731C632A642A862A70084001A0007108F0
:1014D000A1007208A2007308A3000130A400A33782
:1014E000A20CA10CA00CA40B6F2A2308F300220865
:1014F000F2002108F1002008F0007A0A0319812A7D
:10150000822A862A0130A0002008FA077A0A0319E5
:101510008A2A8B2A902A7A08031D8F2A902A9E2ACB
:101520000030F3000030F2000030F1000030F00035
:101530007A08031D9C2A9D2A9E2AF8017A1CA12A5A
:10154000A22AA42AF217A92A7F304001A00020086D
:10155000F2057A364001A0002008F300F81FB12AF6
:10156000B22AB32AF3170800400123088039F90092
:101570007908A8002335F9007908AE00A21FC12A16
:10158000C22AC32A2E142E080319C72AC82AD72A0A
:101590002E0A031DCC2ACD2AD52A0030A300003004
:1015A000A2000030A1000030A000A217DF2A003006
:1015B000A3000030A2000030A1000030A0002708E6
:1015C0008039F9007908A8062735F9007908AD00B7
:1015D000A61FEB2AEC2AED2A2D142D080319F12A57
:1015E000F22A012B2D0A031DF62AF72AFF2A0030C2
:1015F000A7000030A6000030A5000030A400A61708
:10160000092B0030A7000030A6000030A5000030F4
:10161000A4002D0803190D2B0E2B132B2E08031DD0
:10162000122B132B1C2B0030A3000030A200003023
:10163000A1000030A0000A2D2008F9007908F00070
:1016400026089A3154228A3171084001B40070088A
:10165000B3003308F900FA01FB01FC017C08AC007F
:101660007B08AB007A08AA007908A9003408F900C1
:10167000FA01FB01FC017C08B2007B08B1007A088A
:10168000B0007908AF002108F9007908F0002508BA
:101690009A3154228A3171084001B4007008B300B5
:1016A0003308F900FA01FB01FC017908A9077A085F
:1016B000AA3D7B08AB3D7C08AC3D3408F900FA013B
:1016C000FB01FC017908AF077A08B03D7B08B13D0A
:1016D0007C08B23D2208F9007908F00024089A310C
:1016E00054228A3171084001B4007008B3003308F5
:1016F000F900FA01FB01FC017908A9077A08AA3D63
:101700007B08AB3D7C08AC3D3408F900FA01FB01D5
:10171000FC017908AF077A08B03D7B08B13D7C0831
:10172000B23D0830A935AA0DAB0DAC0D890B922B3B
:101730002108F9007908F00024089A3154228A31EE
:1017400071084001B4007008B3003308A9073408D9
:10175000AA3D0030AB3DAC3D2008F9007908F0000F
:1017600025089A3154228A3171084001B40070086A
:10177000B3003308A9073408AA3D0030AB3DAC3DA7
:101780000830A935AA0DAB0DAC0D890BC12B200873
:10179000F9007908F00024089A3154228A3171083E
:1017A0004001B4007008B3003308A9073408AA3D0B
:1017B0000030AB3DAC3D2108F9007908F000260867
:1017C0009A3154228A3171084001B4007008B30084
:1017D0003308AF073408B03D0030B13DB23D2208B8
:1017E000F9007908F00025089A3154228A317108ED
:1017F0004001B4007008B3003308AF073408B03DAF
:101800000030B13DB23D2208F9007908F000260809
:101810009A3154228A3171084001B4007008B30033
:101820003308F9003408FA00FB01FC010830F935EF
:10183000FA0DFB0DFC0D890B172C7908AF077A0800
:10184000B03D7B08B13D7C08B23D2908F9002A086B
:10185000FA002B08FB002C08FC001830FC36FB0CAF
:10186000FA0CF90C890B2E2C7908AF077A08B03DD9
:101870007B08B13D7C08B23D0830A935AA0DAB0DFF
:10188000AC0D890B3D2C2E082D07F900FA01FA0D3D
:101890007908823EB300FF307A3DB400662C0130F7
:1018A000AF35B00DB10DB20D890B502CAC1F592CBA
:1018B0005A2C5B2C2F140130A935AA0DAB0DAC0DA1
:1018C000890B5C2CFF30B307FF30B43DB11F692C8E
:1018D0006A2C4F2CAD01AC1F6E2C6F2C8B2CFF3063
:1018E0002905F900FF302A05FA00FF302B05FB001F
:1018F0007F302C05FC007C087B047A0479040319F2
:10190000822C832C862CAD01AD0A8B2C2F1C892CAC
:101910008A2C8B2C832C2D0803198F2C902CB82CFF
:101920000130AF070030B03D0030B13D0030B23D76
:10193000321C9B2C9C2CB82C2F08F9003008FA0084
:101940003108FB003208FC000130FD00FC37FB0CC5
:10195000FA0CF90CFD0BA62C7C08B2007B08B10038
:101960007A08B0007908AF000130B3070030B43D09
:101970003408803AF90080307902031DC12CFF3011
:101980003302031CC42CC52CCF2C7F304001B20085
:101990008030B1000030B0000030AF00FE2C4001BC
:1019A0003408803AF90080307902031DD92C0130C7
:1019B00033020318DC2CDD2CE82C00304001B2008F
:1019C0000030B1000030B0000030AF00A801FE2CA4
:1019D00040013308F9007908AE00FF30AF05FF3051
:1019E000B0057F30B1050030B2052E1CF82CF92C63
:1019F000FA2CB1172E36F9007908B2002808F90040
:101A00007908B2043208A3003108A2003008A1000E
:101A10002F08A00008004201B40040016C088600B5
:101A20008701403F4101D900413FDA005908840055
:101A30005A0885001200253A031D1F2D202DD82F8E
:101A400040016C088600870101308107413103188D
:101A5000810A4201DC01DD01E001E101FF30DE002D
:101A6000FF30DF0040016C0886008701403F4101E4
:101A7000D900413FDA00590884005A088500120055
:101A80002E3A031D442D452DC32D4201DE01DF01F9
:101A900040016C088600870101308107413103183D
:101AA000810A6C0886008701403F4101D900413F0F
:101AB000DA00590884005A08850012002A3A031DEA
:101AC000622D632D7B2D40016C088600870101305B
:101AD000810741310318810A6D08860001308700B3
:101AE00001088400850102308107003F4201DE00C9
:101AF000013FDF00C32D40016C0886008701403F95
:101B0000F600413FF700903114208D3177084201F3
:101B1000DF007608DE00952D40016C088600870105
:101B20000130810741310318810A40016C088600A9
:101B30008701403F4101D900413FDA005908840044
:101B40005A0885000008D03EDB00FF300318003043
:101B5000DC0000305C020A3003195B02031CB12D6B
:101B6000B32D0130B42D0030DD00DE015D084201EF
:101B7000A80041015E084201A90028082904031DAC
:101B8000C22DC32D8C2D40016C0886008701403F7B
:101B90004101D900413FDA00590884005A08850004
:101BA0000008DB00DC015B08F6005C08F7009A31F6
:101BB00077228D3176084101DD005D084201B000D9
:101BC00030080319E42DE52D2A2E40016C0886000B
:101BD0008701403F4101D900413FDA0001305907F8
:101BE00084005A0803185A0A85000008DB00DC014B
:101BF0005B08F6005C08F7009A3177228D31760891
:101C00004101DD005D084201B10031080319092ED0
:101C10000A2E2A2E40016C0886008701403F4101B0
:101C2000D900413FDA000230590784005A080318EE
:101C30005A0A85000008DB00DC015B08F6005C083E
:101C4000F7009A3177228D3176084101DD005D0879
:101C50004201B20040016C0886008701403F41010B
:101C6000D900413FDA00590884005A088500120063
:101C7000643A03193C2E3D2E502E40016C0886001C
:101C80008701403F4101D900413FDA0059088400F3
:101C90005A0885001200693A031D4F2E502EA12EBE
:101CA00040016C088600870101308107413103182B
:101CB000810A6D08860001308700010884008501D3
:101CC00002308107003F4101D900013FDA00590885
:101CD0004201A00041015A084201A100890D893B3F
:101CE0008909A200A300A400A500A600A70020085F
:101CF0004001B000420121084001B1004201220828
:101D00004001B200420123084001B300420124080F
:101D10004001B400420125084001B50042012608F7
:101D20004001B600420127084001B70042013408D3
:101D30009431DC248D3140013108ED003008EC0095
:101D4000FF2F663042013006031DA72EA82EF62E67
:101D500040016C0886008701403F4101D900413FA6
:101D6000DA00590884005A0885000008DB005B0887
:101D70004201B30040016C088600870101308107F1
:101D800041310318810A6D0886000130870001087F
:101D90008400850104308107003F4201AC00013F0F
:101DA000AD00023FAE00033FAF002F084001E60048
:101DB00042012E084001E50042012D084001E400E7
:101DC00042012C084001E300420133084101D900DF
:101DD00059084001E7004201340880313E208D312E
:101DE00040016408ED006308EC00FF2F3E30F00076
:101DF000A030F1000230F2000030F30030309C31AE
:101E0000FE248D3170087104031D072F082F9D2FAC
:101E100040016C0886008701403F4101D900413FE5
:101E2000DA000130590784005A0803185A0A85005D
:101E30000008DB005B084201B30040016C0886002B
:101E40008701403F4101D900413FDA005908840031
:101E50005A0885000008BF3EDB00FF300318003041
:101E6000DC0000305C021A3003195B02031C392FBE
:101E70003B2F01303C2F0030DD00DE015D084201C8
:101E8000AA0041015E084201AB002A082B04031995
:101E90004A2F4B2F5F2F40016D08860001308700CD
:101EA00001088400850104308107003F4201AC0035
:101EB000013FAD00023FAE00033FAF00722F400173
:101EC0006D08860001308700010884008501043018
:101ED0008107003F4201AC00013FAD00023FAE0070
:101EE000033FAF0040016C08860087010230810784
:101EF00041310318810A42012F084001E6004201E6
:101F00002E084001E50042012D084001E400420195
:101F10002C084001E300420133084101D90059086F
:101F20004001E7004201340880313E208D314001FC
:101F30006408ED006308EC00FF2F40016C08860088
:101F40008701403F4101D900413FDA005908840030
:101F50005A0885001200253A031DAF2FB02FCC2F51
:101F600040016C0886008701013081074131031868
:101F7000810A2530F0000030F100420134084101AF
:101F8000D9005908F2009C314F248D3101304001B5
:101F9000EC000030ED00FF2F40016C088600870147
:101FA0000130810741310318810AEC01ED01FF2F57
:101FB00040016C0886008701403F4101D900413F44
:101FC000DA00590884005A0885000008DB00DC01AB
:101FD0005B08F0005C08F100420134084101DD00BB
:101FE0005D08F2009C314F248D3140016C08860061
:101FF00087010130810741310318810AC62F08008B
:1020020041019D1408009931122190319B317523B1
:10201200903199312A2190319831F22090319931C1
:102022000A21903108004001A701A801A001A101E5
:102032001E280130F6070030F73DA601A60A7608F1
:102042008400770885001200203A031929282A28DB
:102052003F2876088400770885000008F73EF800DC
:10206200FF3003180030F9000030790205300319FF
:102072007802031C3D283E283F28A6012608F800C6
:10208200F9017808A2007908A30022082304031D9D
:102092004B284C281A2856280130A0000030A100F5
:1020A2000130F6070030F73D8A2876088400770869
:1020B20085000008F800F9017908003A031962283E
:1020C2008A2878082B3A03195128063A03194D2811
:1020D2008A2876088400770885000008F800280816
:1020E200F1002708F0000A30F2000030F3009931C5
:1020F200D32190317108FA0078087002F900031CAC
:10210200FA037908303E4001A70000307A3DA8006A
:10211200512876088400770885000008D03EF80030
:10212200FF3003180030F900003079020A30031939
:102132007802031C9D289F280130A0280030FA0055
:10214200FB017A08A4007B08A50024082504031DCE
:10215200AB28AC286A2820082104031DB128B22824
:10216200BE282709F8002809F900F80A0319F90A14
:102172007808F6007908F700C2282808F70027082F
:10218200F6000800F2012830860000308700473F41
:10219200F000F01FCD28CE28EF284001A809A90998
:1021A200AA09AB09AC09AD09AE09AF09A80A031D1A
:1021B200ED28A90A031DED28AA0A031DED28AB0A82
:1021C200031DED28AC0A031DED28AD0A031DED2801
:1021D200AE0A031DED28AF0AF201F20A2030860092
:1021E20000308700473FF000F01FF828F92818292F
:1021F2004001A009A109A209A309A409A509A609E8
:10220200A709A00A031D1829A10A031D1829A20A59
:10221200031D1829A30A031D1829A40A031D18293E
:10222200A50A031D1829A60A031D1829A70A400199
:10223200200821042204230424042504260427045C
:102242000319242925297829F101F10A3429A03515
:10225200A10DA20DA30DA40DA50DA60DA70D013074
:10226200F0007008F107A71F372938292829270805
:102272002F02031D562926082E02031D5629250862
:102282002D02031D562924082C02031D562923085A
:102292002B02031D562922082A02031D5629210852
:1022A2002902031D562920082802031C59295A29EC
:1022B2006A292008A8022108A93B2208AA3B230870
:1022C200AB3B2408AC3B2508AD3B2608AE3B2708B8
:1022D200AF3BA736A60CA50CA40CA30CA20CA10C18
:1022E200A00C0130F102031D7729782938297208E0
:1022F20003197C297D299B29A809A909AA09AB09E7
:10230200AC09AD09AE09AF09A80A031D9B29A90AA8
:10231200031D9B29AA0A031D9B29AB0A031D9B29A6
:10232200AC0A031D9B29AD0A031D9B29AE0A031D9E
:102332009B29AF0A40012808A0002908A1002A0809
:10234200A2002B08A3002C08A4002D08A5002E082B
:10235200A6002F08A7000800420155084001E2002C
:10236200420154084001E100420153084001E000EB
:10237200420152084001DF005208E2005108E10028
:102382005008E0004F08DF005F08D3006008D40067
:102392006108D5006208D6001730D636D50CD40CA9
:1023A200D30C890BCE29FF305305D70000305405DA
:1023B200D8005708813EDD00FF30583DDE005E0840
:1023C200803AD30080305302031DE92917305D02A1
:1023D200031CEC29ED29EE29972A4001DE1BF22984
:1023E200F329502AFF30D300FF30D4007F30D500CC
:1023F2000030D6005D0A012AD637D50CD40CD30C96
:10240200890BFD295608DC005508DB005408DA0068
:102412005308D9005F085905D30060085A05D40053
:1024220061085B05D50062085C05D60056085504B4
:1024320054045304031D1E2A1F2A202AED295F0873
:10244200D3006008D4006108D5006208D6001F30AE
:10245200D636D50CD40CD30C890B292A5608550430
:10246200540453040319362A372A3F2A5908DF072E
:102472005A08E03D5B08E13D5C08E23D5909D300A2
:102482005A09D4005B09D5005C09D6005308DF0560
:102492005408E0055508E1055608E2058F2A5F0851
:1024A200D3006008D4006108D5006208D6001F304E
:1024B200D636D50CD40CD30C890B592A56085504A0
:1024C20054045304031D662A672A702A0030E2006E
:1024D2000030E1000030E0000030DF008F2A5F08AA
:1024E200D3006008D4006108D5006208D60001302C
:1024F200D335D40DD50DD60D890B792A560855043E
:10250200540453040319862A872A8F2ABF30E20013
:102512008030E1000030E0000030DF006208D200CD
:102522006108D1006008D0005F08CF000800F20106
:102532002030860000308700473FF000F01FA22ABB
:10254200A32AC42A4001A009A109A209A309A40936
:10255200A509A609A709A00A031DC22AA10A031DEB
:10256200C22AA20A031DC22AA30A031DC22AA40A5E
:10257200031DC22AA50A031DC22AA60A031DC22AD6
:10258200A70AF201F20A2830860000308700473F8E
:10259200F000F01FCD2ACE2AF12A4001A809A9098C
:1025A200AA09AB09AC09AD09AE09AF09A80A031D16
:1025B200ED2AA90A031DED2AAA0A031DED2AAB0A78
:1025C200031DED2AAC0A031DED2AAD0A031DED2AF7
:1025D200AE0A031DED2AAF0A0130F0007008F206C0
:1025E20073308600003087000830F00000301E0093
:1025F200F00BF82A400120082104220423042404B9
:102602002504260427040319072B082B642BF10148
:10261200F10A172BA035A10DA20DA30DA40DA50D36
:10262200A60DA70D0130F0007008F107A71F1A2BA5
:102632001B2B0B2BF335F40DF50DF60DF70DF80DE5
:10264200F90DFA0D27082F02031D412B26082E0231
:10265200031D412B25082D02031D412B24082C02AA
:10266200031D412B23082B02031D412B22082A02A2
:10267200031D412B21082902031D412B200828029A
:10268200031C442B452B562B2008A8022108A93BEA
:102692002208AA3B2308AB3B2408AC3B2508AD3BF0
:1026A2002608AE3B2708AF3B7314A736A60CA50C31
:1026B200A40CA30CA20CA10CA00C0130F102031D6E
:1026C200632B642B1B2B72080319682B692B872B36
:1026D200F309F409F509F609F709F809F909FA09FC
:1026E200F30A031D872BF40A031D872BF50A031D2A
:1026F200872BF60A031D872BF70A031D872BF80A7F
:10270200031D872BF90A031D872BFA0A7308400160
:10271200A0007408A1007508A2007608A30077083B
:10272200A4007808A5007908A6007A08A700080086
:1027320090310420933102309E31C2269331993177
:102742000A2193314201D001D1014201500898314E
:10275200ED209331E6300032890BAC2B013042017F
:10276200D0070030D13D5108803A4101EC00803061
:102772006C02031DBF2B643042015002031CC22BAA
:10278200C32BA62B1C3099313F219331903101206C
:102792009331993103219331003A0319D12BD22B72
:1027A200CA2B9831F720933170084101EC0071086F
:1027B200ED00EE01EF016F08F5006E08F4006D0800
:1027C200F3006C08F20000309F31532793317508F3
:1027D2004201C9007408C8007308C7007208C60025
:1027E20044304001B8007F30B700C030B60000303E
:1027F200B5004030A300A030A2000030A10000309C
:10280200A000420149084001A700420148084001D6
:10281200A600420147084001A500420146084001C6
:10282200A4008A31B422933140012308BC0022085B
:10283200BB002108BA002008B90096314C2693311A
:10284200400138084201CD00400137084201CC0066
:10285200400136084201CB00400135084201CA005E
:102862004D084001A70042014C084001A600420168
:102872004B084001A50042014A084001A40044302F
:10288200A3007A30A2000030A1000030A0008A31FB
:10289200B422933140012308B8002208B70021086E
:1028A200B6002008B5008831002093314001360877
:1028B2004201CF00400135084201CE00F801153037
:1028C200F900A030FA00FB0100308031052093317D
:1028D20027304101E500A030E60042014D084101E8
:1028E200EA0042014C084101E90042014B08410162
:1028F200E80042014A084101E7003C309A31EB22EC
:10290200933109304101EC006C08F8003C30F900C9
:102912000130FA00FB010030803105209331F801CB
:102922001530F900A030FA00FB010130803105209A
:1029320093311F304101E500A030E60042014F080B
:102942004101E80042014E084101E7003C309A3162
:10295200EB22933109304101EC006C08F8003C3065
:10296200F9000130FA00FB0101308031052093317A
:10297200013042014F02F43003194E020318C22CF7
:10298200C32CC72C40011C141B14A32B0D304F0267
:10299200AD3003194E02031CCF2CD02CD42C400195
:1029A20099161B15A32B40011C101B1099121B1109
:1029B200A32B803102284001BD003008C400310839
:1029C200C5003208C6003308C7003408C8003508FD
:1029D200C9003608CA003708CB00443086000030F0
:1029E2008700473FB800B81BF72CF92C0130FA2CAE
:1029F20000304001B900BA013908C2003A08C300E8
:102A0200420843040319062D072D252DC409C509C3
:102A1200C609C709C809C909CA09CB09C40A031DDD
:102A2200252DC50A031D252DC60A031D252DC70AFE
:102A3200031D252DC80A031D252DC90A031D252D99
:102A4200CA0A031D252DCB0A4201DF1B292D2A2D7F
:102A52002E2DFD30E005FF30E1055F08803A400190
:102A6200B80080303802031D392D013042015E0268
:102A720003183C2D3D2D432D01304001BE00003096
:102A8200BF004B2D42015F084001BF0042015E08BA
:102A92004001BE0042015D084001C10042015C08E4
:102AA2004001C00042084304031D582D592D5E2DDC
:102AB2004201601D5D2D5E2D632DFF304001C00778
:102AC200FF30C13D4F304001CC000030CD0043010A
:102AD200EF01D42DFF304001CC07FF30CD3D0A304D
:102AE200A000A101A201A301A401A501A601A701C1
:102AF2004408A8004508A9004608AA004708AB00F8
:102B02004808AC004908AD004A08AE004B08AF00C7
:102B12009031C320943140012108F4002008F300D1
:102B220099319F2194317308303E4001B8004C081E
:102B3200A03E86000130870038088100FF30BE07C2
:102B4200FF30BF3DFF30C007FF30C13D0A30A0005B
:102B5200A101A201A301A401A501A601A7014408A4
:102B6200A8004508A9004608AA004708AB00480883
:102B7200AC004908AD004A08AE004B08AF009231E4
:102B82009822943140012008C4002108C50022087F
:102B9200C6002308C7002408C8002508C900260863
:102BA200CA002708CB0040014D08803AB8008030A7
:102BB2003802031DDE2D01304C02031CE12DE22DF3
:102BC2000F2E4001440845044604470448044904C2
:102BD2004A044B04031DEE2DEF2D6B2D3F08803A66
:102BE200B80080303802031DF82D01303E02031870
:102BF200FB2DFC2D6B2D40014108803AB80080303E
:102C02003802031D062E01304002031C092E0A2E33
:102C12000F2E4201E0180E2E0F2E6B2D400142089E
:102C22004304031D152E162E1B2E4201601D1A2E63
:102C32001B2E382EFF304001CC07FF30CD3D42081D
:102C42004304031D252E262E2B2E2B30BB000030D5
:102C5200BC002F2E2D30BB000030BC003B08B8005A
:102C62004C08A03E860001308700380881004001F0
:102C72004C08A03EB8003808A4004108A60040084D
:102C8200A5003D089C31A524943140012508B100DE
:102C92002408B000080040013C088039BD003D080E
:102CA200C6003C35BD003D08CD00BB1F592E5A2E33
:102CB2005B2E4D144D0803195F2E602E702E4D0AA7
:102CC200031D642E652E6D2E0030BC000030BB004B
:102CD2000030BA000030B900BB17BC01782E0030BA
:102CE200BC000030BB000030BA000030B900380828
:102CF2008039BD003D08C6063835BD003D08CE000E
:102D0200B71F842E852E862E4E144E0803198A2E46
:102D12008B2E9B2E4E0A031D8F2E902E982E003046
:102D2200B8000030B7000030B6000030B500B71769
:102D3200B801A32E0030B8000030B7000030B60052
:102D42000030B5003808370436043504031DAA2EB6
:102D5200AB2EC42E0030BC000030BB000030BA00E5
:102D62000030B9008030BB047F30BC044608BD008F
:102D72003D08BC043C08B8003B08B7003A08B6005E
:102D82003908B500FF2F4D08031DC82EC92ED22EBB
:102D92000030B8000030B7000030B6000030B50097
:102DA200FF2F4D08BD00BE013E08C0004E083D0287
:102DB200BF00031CC0033F087F3EC7000030403DF8
:102DC200C8003C08C5003B08C4003A08C3003908E3
:102DD200C2000030BC000030BB000030BA0000303E
:102DE200B9000030CC000030CB000030CA00003007
:102DF200C900CE013A2F4E080319002F012F1B2FB5
:102E02000130C235C30DC40DC50D890B022F01302F
:102E1200B935BA0DBB0DBC0D890B092FCC1F122F72
:102E2200132F142F39140130C935CA0DCB0DCC0D17
:102E3200890B152F38084502031D292F3708440234
:102E4200031D292F36084302031D292F350842028C
:102E5200031C2C2F2D2F362F4C173508C202360893
:102E6200C33B3708C43B3808C53B0130BD003D08B1
:102E7200CE071A304E02031C3F2F402FFC2E45086E
:102E82004404430442040319472F482F612F491475
:102E9200612F0130B935BA0DBB0DBC0D890B4B2F1B
:102EA200CC1F542F552F562F39140130C935CA0D56
:102EB200CB0DCC0D890B572FFF30C707FF30C83D14
:102EC200BB1F642F652F4A2FCE01CC1F692F6A2F9B
:102ED200862FFF304905BD00FF304A05BE00FF3096
:102EE2004B05BF007F304C05C00040083F043E0444
:102EF2003D0403197D2F7E2F812FCE01CE0A862F0E
:102F0200391C842F852F862F7E2F4E0803198A2F76
:102F12008B2FB32F0130B9070030BA3D0030BB3DD3
:102F22000030BC3D3C1C962F972FB32F3908BD00B3
:102F32003A08BE003B08BF003C08C0000130C10097
:102F4200C037BF0CBE0CBD0CC10BA12F4008BC008A
:102F52003F08BB003E08BA003D08B9000130C70770
:102F62000030C83D4808803ABD0080303D02031D54
:102F7200BC2FFF304702031CBF2FC02FCD2FFF30C5
:102F82004001C7000030C8000030BC000030BB0068
:102F92000030BA000030B90040014808803ABD0054
:102FA20080303D02031DD72F013047020318DA2F6C
:102FB200DB2FE72F4001C701C8010030BC00003001
:102FC200BB000030BA000030B900C601400147081A
:102FD200BD003D08CD004D1CEF2FF02FF22FBB1787
:102FE200F62F7F30BD003D08BB054D36BD003D08C4
:0E2FF200BC004608BD003D08BC04BB2E080014
:1031D60008340234F000700852018F000800A03055
:1031E60052018E008F01080041011C08F1001B08E6
:1031F600F0000800640080010131890BFE280034CC
:10320600031041019D1C03140030093D0800803065
:1032160041019E009B019C0173309D0008004F01F7
:1032260096019701980199019A019B010800F30004
:1032360040011C1173089931592199310800F30096
:1032460040011C15730899315921993108006030E5
:1032560051018D008F01910102309300900192017E
:103266000800730872047104700403193B293C2991
:103276003E298030F3060800F1007108F000F00DD9
:10328600F00D41011D087006033970069D001D14DE
:10329600080040019C14C8300032890B4F294001B8
:1032A6009C10C8300032890B55290800F2007208BC
:1032B600F1000430F136890B5D2971089A319C22A0
:1032C600993199314C21993172089A319C22993160
:1032D60099314C21993108007008D03EF200FF3038
:1032E600713DF300003073020A3003197202031CA9
:1032F6007D297F29013080290030F400F50174080A
:10330600F0007508F10008007008BF3EF200FF30BB
:10331600713DF300003073021A3003197202031C68
:1033260095299729013098290030F400F501740891
:10333600F0007508F10008007408803AF500803046
:103346007502031DA829013073020318AB29AC29A5
:10335600B8297309F5007409F600F50A0319F60A87
:103366007508F3007608F400B8290800F40074081C
:10337600F2007208F300C3290130F2007208F40764
:1033860074088600013087000108031DCB29CC296B
:10339600BF2973087402F000F101F01BF103080065
:1033A600F401F501701CD829D929DD297208F40722
:1033B6007308F53D0130F235F30D890BDE29013036
:1033C600F136F00C890BE32970087104031DEC2912
:1033D600ED29D5297508F1007408F0000800803041
:1033E6004001B8063C08F3003B08F2003A08F10039
:1033F6003908F0003808F7003708F6003608F500F7
:103406003508F40088317520993173084001B800F9
:103416007208B7007108B6007008B5000800F4011C
:10342600F40A20307006710403191A2A1B2A2B2A63
:103436007008F73EF200FF30713DF3000030730272
:10344600053003197202031C292A2A2A2B2AF401A1
:103456007408F200F3017208F0007308F100080026
:10346600F7007108F5007008F4007708F20072089A
:10347600F6007608860001308700F60A7508F30024
:103486007408F200F40A0319F50A72088400730836
:1034960085000008C03F8908031D522A532A3C2A8A
:1034A6000800F800F401F5017008F200F301720853
:1034B600F6007308F700781C612A622A662A7608E5
:1034C600F4077708F53D0130F635F70D890B672AC5
:1034D6000310F80C7808031D712A722A5E2A7508F3
:1034E600F1007408F00008007608BF3EF800FF30CF
:1034F600773DF900003079021A3003197802031C6F
:10350600852A872A0130882A0030FA00FB017A08CA
:10351600FC007B08FD007C087D040319932A942A8D
:103526009B2A20307604F60000307704F7009B2AA9
:103536000800F000701CA02AA12AA42A400118162F
:10354600A62A400118120310F00C701CAB2AAC2AF4
:10355600AE2A9815AF2A98110310F00C701CB42AE5
:10356600B52AB72A9814B82A98100310F00C701CC4
:10357600BD2ABE2AC02A1814C12A18100800400104
:10358600A300A101A201DA2A2008F900FA017908AC
:10359600F0007A08F1007808FB007B08F2009C3105
:1035A6004F249A3101304001A1070030A23D210885
:1035B6002307F90079088600013087000108FA0020
:1035C6007A08A0002008031DE92AEA2AC72A08006B
:1035D6004201B500E7304101EB006B084201B6003D
:1035E60035084101EB006B084201B700B801B9018B
:1035F600BA01BB0141016608E0006508DF0036300C
:10360600EB006B08E10037309B3140239A314201D1
:10361600380835074101EB006B088600013087004A
:1036260081010800F70077084201650203181C2B88
:103636001D2B212B6508F5007508F7007408640238
:103646000318262B272B2B2B6408F5007508F4008E
:103656007708003E8400A0300318013E850000086C
:103666007407F5007508F600760899311A219B3122
:10367600C8300032890B3C2B08004101E20060088B
:10368600E4005F08E3004201DA01DB01622BE3306C
:103696004001EE006E08EC00410161084001EF00B8
:1036A6006F08ED00410162088D310B259B31400109
:1036B6006C084201DA0740016D084201DB3D410119
:1036C60063088400640885001200031D6B2B6C2BB5
:1036D6004A2B42015B084101E00042015A084101C0
:1036E600DF00080040019C019B01980199019A01A5
:1036F60008309600E4309200DF309300FF309400EB
:10370600FA309500FA307E01D900FF30CE00DF3066
:10371600C300E401E430B800DA01E501C401B901EF
:10372600CF01E601BA01C501D001DB01FF30BB00C4
:10373600FF30C600FF30D100FF30DC000730E70065
:10374600FF30BC00FF30C700FF30D200FF30DD0085
:103756000F30E800080000307005F80000307105F1
:10376600F90080307205FA007F307305FB007B0894
:103776007A0479047804031DC12BC22BCA2B0030AE
:10378600F3000030F2000030F1000030F0000030AD
:103796007405F80000307505F90080307605FA00EA
:1037A6007F307705FB007B087A0479047804031DD3
:1037B600DD2BDE2BE62B0030F7000030F600003064
:1037C600F5000030F40077087306031DF42B760825
:1037D6007206031DF42B75087106031DF42B74087D
:1037E60070060319F72BF82BFA2B0310FB2B031487
:1037F6000800F601F31F002C012C082CF209F3092E
:10380600F20A0319F30AF601F60AF11F0B2C0C2C27
:10381600112CF009F109F00A0319F10A7008710474
:103826000319162C172C402CF501F50A232C013010
:10383600F035F10D890B1B2C0130F4007408F507E7
:10384600F11F262C272C1A2C71087302031D2D2C10
:1038560070087202031C302C312C352C7008F202D1
:103866007108F33B0130F136F00C890B362C013030
:10387600F502031D3F2C402C272C76080319442CF7
:10388600452C4A2CF209F309F20A0319F30A7308C4
:10389600F1007208F000080072080319532C542C2A
:1038A600592C7208031D582C592C5E2C7008803137
:1038B60004209C31A42C7208033E86000130870048
:1038C600160001040319682C692C882C7208033E23
:1038D600860001308700403FF300413FF400720A42
:1038E600860001308700403FF500413FF60076082C
:1038F600803AF7007408803A7702031D842C730817
:1039060075020318872C882CA42C7008F300720803
:10391600860001308700720A8400013085000008A5
:103926000107F400740886000130870073088100DF
:10393600720A860001308700013081074131031881
:10394600810A08004001AB004201601CAB2CAC2C84
:10395600B52C40012B08FC007C08F80024089A319D
:10396600C2229C314001A61BB92CBA2CBF2C2608BA
:10397600AA002508A900C12CA901AA01A701A8012E
:10398600D52C2030F0000030F10040012B08FC005F
:103996007C08F2009C314F249C3101304001A7077E
:1039A6000030A83D2808803AFC002A08803A7C02AC
:1039B600031DDF2C29082702031CE22CE32CC42C50
:1039C60042016018E72CE82CF12C40012B08FC0082
:1039D6007C08F80024089A31C2229C314001240850
:1039E6009931B9219C31400129087007A4002A08A1
:1039F600713DA5000800F5007508F4007408F8008C
:103A06007108F7007008F6000130F2020030F33B4F
:103A1600720A031D122D730A031D122D132D222D5A
:103A2600F001F101582D0130F4007408F807013057
:103A3600F6070030F73D0130F2020030F33B78081C
:103A4600860001308700010803192A2D2B2D4A2DE7
:103A5600760884007708850012000319332D342D6B
:103A66004A2D720873040319392D3A2D4A2D76080A
:103A76008400770885000008F40078088600013085
:103A86008700010874060319492D4A2D162D78085A
:103A960086000130870076088400770885000008D4
:103AA6000102F000F101031CF1030800F601F11F09
:103AB6005D2D5E2D652DF009F109F00A0319F10A55
:103AC600F601F60AF31F682D692D722DF209F30926
:103AD600F20A0319F30A0130F4007408F606F70136
:103AE600F801700871040319792D7A2DA92DF501B5
:103AF600F50A862D0130F035F10D890B7E2D01304A
:103B0600F4007408F507F11F892D8A2D7D2D0130EB
:103B1600F735F80D890B8B2D71087302031D952D52
:103B260070087202031C982D992D9E2D7008F202C2
:103B36007108F33B77140130F136F00C890B9F2D99
:103B46000130F502031DA82DA92D8A2D760803192B
:103B5600AD2DAE2DB32DF709F809F70A0319F80AAA
:103B66007808F1007708F000080042015908400182
:103B7600A500420158084001A4004201570840012F
:103B8600A300420156084001A2007308A50072086E
:103B9600A4007108A3007008A2002208F4002308FC
:103BA600F5002408F6002508F7001730F736F60C5E
:103BB600F50CF40C890BD92DFF307405A0000030EC
:103BC6007505A10020082104031DEA2DEB2D0C2EFE
:103BD6002208F4002308F5002408F6002508F7005B
:103BE6000130F435F50DF60DF70D890BF42D770838
:103BF600760475047404031D012E022E072E02306E
:103C0600F0000030F100362E0330F0000030F100F5
:103C1600362E200A2104031D112E122E322E2208C2
:103C2600F4002308F5002408F6002508F7000930FB
:103C3600F435F50DF60DF70D890B1B2E7708760476
:103C4600750474040319282E2A2E01302B2E0030F9
:103C5600F800F9017808F0007908F100362E0430F2
:103C6600F0000030F1000800003040013505BD00CD
:103C760000303605BE0080303705BF007F3038057E
:103C8600C00040083F043E043D04031D4B2E4C2E4D
:103C9600542E0030B8000030B7000030B6000030B7
:103CA600B50000303905BD0000303A05BE00803051
:103CB6003B05BF007F303C05C00040083F043E0482
:103CC6003D04031D672E682E702E0030BC000030A8
:103CD600BB000030BA000030B900B81F732E742E36
:103CE6008C2E0030BD000030BE000030BF0080309A
:103CF600C0003508BD023608BE3B3708BF3B380852
:103D0600C03B4008B8003F08B7003E08B6003D0873
:103D1600B500BC1F8F2E902EA82E0030BD0000309F
:103D2600BE000030BF008030C0003908BD023A082E
:103D3600BE3B3B08BF3B3C08C03B4008BC003F08BD
:103D4600BB003E08BA003D08B9008030B806803096
:103D5600BC063C083802031DBA2E3B083702031D79
:103D6600BA2E3A083602031DBA2E39083502031850
:103D7600BD2EBE2EC02E0310C12E03140800F60061
:103D8600F62E0230F40074084201E5000830F40013
:103D96007408E400122F0230F40074084201E500B2
:103DA6001030F4007408E400122F0430F400740894
:103DB6004201E5001030F4007408E400122F0230CE
:103DC600F40074084201E5001430F4007408E400BD
:103DD600122F0430F40074084201E5001430F40098
:103DE6007408E400122F7608F400F5017508003A0D
:103DF6000319FE2E522F7408003A0319C42E013AF5
:103E06000319C42E033A0319CE2E013A0319D82EEC
:103E1600073A0319E22E013A0319EC2E522F4001FC
:103E26001C113430F400F230890B172FF40B172FC6
:103E360003309A319C229E3199314C219E310730B4
:103E4600F4007D30890B252FF40B252F00009931C6
:103E56004C219E31C8300032890B2E2F99314C21CE
:103E66009E3102309A319C229E3199314C219E31ED
:103E7600283099311A219E310C3099311A219E3100
:103E8600063099311A219E31013099311A219E311D
:103E96008230F400DE30890B4E2FF40B4E2F0800D3
:103EA6004001A00020080319592F5A2F6E2FF51F25
:103EB6005D2F5E2F6E2F7209A2007309A30074098D
:103EC600A4007509A500A20A0319A30A0319A40AE6
:103ED6000319A50A762F7508A5007408A4007308AF
:103EE600A3007208A2007508740473047204031D0B
:103EF6007D2F7E2F872F0030F5000030F400003034
:103F0600F3000030F200FF2F9630F6007608A1008D
:103F1600972F0130F6007608A1070130A536A40CCC
:103F2600A30CA20C890B912FFE302505031D9C2F97
:103F36009D2F8C2FB12F0130F6007608A107013096
:103F4600A2070030A33D0030A43D0030A53D01305E
:103F5600A536A40CA30CA20C890BAB2FFF302505AC
:103F6600031DB62FB72F9E2FC12F0130A10201309E
:103F7600A235A30DA40DA50D890BBB2FA41BC42F21
:103F8600C52FCB2F023021020318CA2FCB2FB82FF3
:103F96002118CE2FCF2FD72FFF30A205FF30A30534
:103FA6007F30A405FF30A5050310A10C2108F600FB
:103FB600F701F801F9011830F635F70DF80DF90D8E
:103FC600890BDF2F7608A2047708A3047808A404D7
:103FD6007908A50420080319F12FF22FF72FF51FF2
:103FE600F52FF62FF72FA5172508F5002408F4005E
:103FF6002308F3002208F20008008034C03490340D
:10400600D03420342034203420342034203420345A
:1040160020342034203420342034203420342034FA
:10402600203400344434693465346E3420344134E9
:1040360050343A342034003425342E343334643446
:1040460020346D345634003425342E3433346634FB
:1040560020345634003449344E34463400344E3419
:1040660041344E34003469346E34663400346E3470
:0C40760061346E3400346C346634003465
:020000040001F9
:0A000E00EC3FFF3F9F3FFF3FFF3F25
:00000001FF
