:020000040000FA
:04000000803118280B
:100008007E1480310B1F09280A2816284E011A1C55
:100018000E280F281628101C12281328162882319B
:10002800C42280317E10090080311A288331C6230A
:100038008031FA008331C7238031FB00B001B10160
:100048007E1040018031B428F80057280230F600AD
:100058007608FB000830F6007608FA0073280230AC
:10006800F6007608FB001030F6007608FA007328D0
:100078000430F6007608FB001030F6007608FA0027
:1000880073280230F6007608FB001430F600760874
:10009800FA0073280430F6007608FB001430F600E6
:1000A8007608FA0073287808F600F7017708003A0E
:1000B80003195F28B3287608003A03192A28013A59
:1000C80003192A28033A03193328013A03193C284B
:1000D800073A03194528013A03194E28B328400165
:1000E8001C113430F600F230890B7828F60B78288A
:1000F800033082317F22803183317F238031073082
:10010800F6007D30890B8628F60B8628000083319F
:100118007F238031C8300032890B8F2883317F23B9
:100128008031023082317F22803183317F238031D8
:10013800283083319E2380310C3083319E238031D7
:10014800063083319E238031013083319E238031F4
:100158008230F600DE30890BAF28F60BAF28080096
:100168008331122380314001A801A9018B17823104
:10017800A52280310B178331A62380317630F20017
:100188000130F30083313C23803102308031282054
:10019800803101304001A8070030A93D0D304001F1
:1001A800A600FB30890BD628A60BD6280032633070
:1001B800400128062904031DE228E328E528A801B0
:1001C800A901F60100308231552280314001A00199
:1001D800B630A1008330A200A3010030823118227A
:1001E80080310A30F2000030F30040012908F500A0
:1001F8002808F4008131272180317208303E83318C
:10020800962380310A30F2000030F30040012908BB
:10021800F5002808F4008131872180317208303ECA
:1002280083319623803106304001A7001330A600A1
:10023800AD30890B1D29A60B1D29A70B1D290032DE
:10024800CD28803118284001A101F31F2C292D2920
:100258003429F209F309F20A0319F30AA101A10AE0
:10026800F51F372938294129F409F509F40A031932
:10027800F50A0130F6007608A106A201A30172086A
:1002880073040319482949297829A001A00A552986
:100298000130F235F30D890B4D290130F60076084F
:1002A800A007F31F582959294C290130A235A30D5D
:1002B800890B5A2973087502031D64297208740290
:1002C800031C672968296D297208F4027308F53B35
:1002D80022140130F336F20C890B6E290130A0028A
:1002E800031D772978295929210803197C297D2993
:1002F8008229A209A309A20A0319A30A2308F30061
:100308002208F2000800F801F51F8B298C2993298F
:10031800F409F509F40A0319F50AF801F80AF31FB4
:10032800962997299C29F209F309F20A0319F30A75
:10033800720873040319A129A229CB29F701F70A26
:10034800AE290130F235F30D890BA6290130F600EC
:100358007608F707F31FB129B229A5297308750292
:10036800031DB82972087402031CBB29BC29C029C3
:100378007208F4027308F53B0130F336F20C890B6E
:10038800C1290130F702031DCA29CB29B2297808EF
:100398000319CF29D029D529F409F509F40A031935
:1003A800F50A7508F3007408F200080040019C0182
:1003B8009B01980199019A010930960064309200D6
:1003C8005F309300FE309400FF309500FD307E01D1
:1003D800D900FE30CE001F30C3000130E400643085
:1003E800B800DA01E501C401B901CF01E601BA019B
:1003F800C501D001DB01FF30BB00FF30C600FF3074
:10040800D100FF30DC000730E700FF30BC00FF30D0
:10041800C700FF30D200FF30DD000F30E800193090
:10042800A00009309F0008004001A5002008A40092
:100438002408F6002508823155228231400123081C
:10044800031D272A282A4F2A362A21088400220831
:100458008500000883319623823101304001A107CD
:100468000030A23D21088400220885001200031DE7
:100478003E2A3F2A292A542A210884002208850076
:10048800000883319623823101304001A1070030F2
:10049800A23D0130A3022308031D532A542A402AEF
:1004A8000800F90079087B0203185B2A5C2A602A95
:1004B8007B08F7007708F90076087A020318652A9E
:1004C800662A6A2A7A08F7007708F6007908C23E91
:1004D800840083300318013E850000087607F70082
:1004E8007708F800780883319E238231C8300032BB
:1004F800890B7B2A0800F200721C832A842A872A27
:1005080040011816892A400118120310F20C721CB7
:100518008E2A8F2A912A9815922A98110310F20C84
:10052800721C972A982A9A2A98149B2A98100310C2
:10053800F20C721CA02AA12AA32A1814A42A1810A3
:10054800080044018F01900191013C308D00B030CA
:100558008C004E01101044010D084001AF00440109
:100568000C084001AE004E011A14C830F2000330E6
:10057800F3008331BC238231013044018E0008002E
:100588004E01101040012F08F1002E08F0008331B1
:100598006023823101304001B0070030B13D0030A6
:1005A8003102143003193002031CDB2ADC2AE22A48
:1005B8008231E32282314001B001B10108004001DB
:1005C8002C082D040319E92AEA2AEF2A2D088A00A3
:1005D8002C080A00823103104001981F03140318E5
:1005E800F62AF92A40019817FB2A400198130800B7
:1005F800F4007408F3000430F336890B002B7308F9
:1006080082317F22823183317F23823174088231A3
:100618007F22823183317F23823108008331AE23E8
:1006280083318131DA21833183318C2383318331E2
:10063800A62383318331712383318231A52283310B
:10064800833128238331080045304B019F000B304C
:100658009D00DC309C001D084001AB004B011C08CC
:100668004001AA004E018C1290304B019E000800F8
:10067800FF30F2050330F30546010E1E442B452BCF
:100688004A2B0630F235F30D890B462B73088D0083
:1006980072088C00080020342034203420342034A0
:1006A80020342034203420342034203420342034A2
:1006B800203420342034003444010E1D642B652B73
:1006C8006C2B0E1071088D0070088C000E14702BA6
:1006D80071088D0070088C000800013045019000F9
:1006E8008F0191017C308D008C014E019010B0304B
:1006F80045018E00080040019C14C8300032890B67
:10070800822B40019C10C8300032890B882B0800CE
:10071800603051018D008F019101023093009001EA
:1007280092010800F50040011C1575088231FC2271
:1007380083310800F50040011C1175088231FC2244
:10074800833108008F3046018E0001308D007630ED
:100758008C0008004F0196019701980199019A01B0
:100768009B010800643465346D343A342034003415
:1007780073084001AD007208AC0008008034C03432
:0A0788009034D03408340234080025
:020000040001F9
:0A000E00EC3FFF3F9F3FFF3FFF3F25
:00000001FF
